:100EA800552FD22783168501860183129E27DF27B7
:100EB8006027B3278E275A2F44308600B027453045
:100EC8008600B02753308600B02750308600B02700
:100ED80049308600B02745308600B027523086005A
:100EE800B02754308600B02741308600B027203024
:100EF8008600B02753308600B02745308600B027DB
:100F080000308600B0274F308600B0275230860068
:100F1800B027080041308600B0274C308600B02743
:100F280045308600B02758308600B027213086002B
:100F3800B0270800051001308600AA27C3273830DB
:100F48008600AA270C308600AA2708008514B8272F
:100F5800B8278510B82708000514AA270800051027
:100F6800C0308600AA2708003030F100FF30F000BA
:100F780000000000F00BBC2FF10BBA2F0800053061
:100F8800F4000830F300FA30F20000000000F20B21
:100F9800C92FF30BC72FF40BC52F080007309F008C
:100FA8000313831600308600003085000313831274
:100FB800860185010800051040308600AA270A30FE
:100FC8008600B02700308600B02711308600B02791
:100FD80019308600B02715308600B02713308600F8
:100FE800B02711308600B02700308600B0270510E2
:080FF80080308600AA270800E2
:02400E00103F61
:00000001FF
