:10000000FE2F00308A000408840A820700340E3470
:100010000034113419341534133411340034443499
:1000200045345334503449344534523454344134D3
:10003000203453344534003441344C34453458343E
:0A004000213400344F3452340034F0
:100E5C0001304A270330F4009730F300F30B342FA2
:100E6C00F40B342F392F0800F4007403031D3F2FAB
:100E7C00402F442F73087F3EF500472F7308BF3E69
:100E8C00F50075084A270800F200831203130510B9
:100E9C007208860085140330F1009730F000F00BD7
:100EAC00552FF10B552F5A2F831203138510080061
:100EBC00F2008312031305147208860085140330A4
:100ECC00F1009730F000F00B692FF10B692F6E2FAA
:100EDC008312031385100800862F730884000120E9
:100EEC005E270130F3070330F6008A30F5005530E9
:100EFC00F400F40B7F2FF50B7F2FF60B7F2F862F33
:100F0C00730884000120003A031D8D2F8E2F732F40
:100F1C0008008316031385018601831203138501D0
:100F2C0086011A30F400F830F300F30B9B2FF40B0E
:100F3C009B2F000038304A270C304A2706304A27AE
:100F4C0001304A270330F4009730F300F30BAC2F39
:100F5C00F40BAC2FB12F0800F50008307502031804
:100F6C00B82FB92FD32F7508F40002300310F40DED
:100F7C00FF3E031DBC2F0310740D403E4A27F601A3
:100F8C0076087307840001205E270130F6070830CD
:100F9C007602031CD22FD32FC62F80304A2708008D
:100FAC008F270130F3000030B227F301F30A013030
:100FBC003A270930F300722700305E271C30F3000B
:100FCC007227F301F30A02303A271630F300722726
:100FDC001030F9003930F8000D30F700F70BF42F12
:100FEC00F80BF42FF90BF42FFB2F2E27DB2F0028F7
:040FFC008301D62F68
:02400E00423F2F
:00000001FF
