:02000000FE2FD1
:100F7E000730831203139F00831603138601831217
:100F8E000313860101308312031386003330F200FF
:100F9E00BB30F100DF30F000F00BD32FF10BD32F6D
:100FAE00F20BD32FDA2F0230831203138600103088
:100FBE00F2003930F1000D30F000F00BE42FF10BA0
:100FCE00E42FF20BE42FEB2F043083120313860071
:100FDE003330F200BB30F100DF30F000F00BF52FB4
:100FEE00F10BF52FF20BF52FFC2FC92F00288301E3
:020FFE00BF2F03
:02400E00103F61
:00000001FF
