:10000000FD2F00308A000408840A820700343F3440
:1000100006345B344F3466346D347D3407347F34BA
:020020006F343B
:100F8A001A30F100F830F000F00BC92FF10BC92F1D
:100F9A00000008000730831203139F0001308316F4
:100FAA0003138500860181138312031385018601C9
:100FBA000800CF27F2017208013E84000120831243
:100FCA00031386000518EA2FEB2FE72FC527831294
:100FDA000313051CF12FF22FEC2FC5270130F2075E
:100FEA000A307202031CFA2FFB2FE02FDF2F002892
:060FFA00F2018301DE2F6D
:02400E00103F61
:00000001FF
