:100F36009C2FB12785018601F001F101851CA42FA4
:100F4600F001051CA92FF00A0518A72F70080A3C06
:100F56000319F0017008C2278600A12F07309F00F1
:100F660003138316033085000313831285010313CD
:100F76008316003086000313831286010800F100F1
:100F86007108003C0319EC2F7108013C0319EE2F80
:100F96007108023C0319F02F7108033C0319F22F64
:100FA6007108043C0319F42F7108053C0319F62F48
:100FB6007108063C0319F82F7108073C0319FA2F2C
:100FC6007108083C0319FC2F7108093C0319FE2F10
:100FD600EC2F3F300800063008005B3008004F3029
:100FE6000800663008006D3008007D3008000730C4
:0A0FF60008007F3008006F3008008B
:02400E00103F61
:00000001FF
